{
  "contractName": "Account",
  "abi": [
    {
      "anonymous": false,
      "inputs": [
        {
          "indexed": false,
          "internalType": "address",
          "name": "customer_id",
          "type": "address"
        },
        {
          "indexed": false,
          "internalType": "address",
          "name": "bank_id",
          "type": "address"
        },
        {
          "components": [
            {
              "internalType": "uint256",
              "name": "_Id",
              "type": "uint256"
            },
            {
              "internalType": "string",
              "name": "accountType",
              "type": "string"
            },
            {
              "internalType": "string",
              "name": "accountCurrency",
              "type": "string"
            },
            {
              "internalType": "string",
              "name": "accountTitle",
              "type": "string"
            },
            {
              "internalType": "string",
              "name": "availableBalance",
              "type": "string"
            },
            {
              "internalType": "string",
              "name": "MailingAddress",
              "type": "string"
            },
            {
              "internalType": "string",
              "name": "City",
              "type": "string"
            },
            {
              "internalType": "string",
              "name": "PostalCode",
              "type": "string"
            },
            {
              "internalType": "string",
              "name": "AddressType",
              "type": "string"
            },
            {
              "internalType": "string",
              "name": "NTN",
              "type": "string"
            },
            {
              "internalType": "address",
              "name": "bank_id",
              "type": "address"
            },
            {
              "internalType": "address",
              "name": "customer_id",
              "type": "address"
            },
            {
              "internalType": "string",
              "name": "addeDateTime",
              "type": "string"
            },
            {
              "internalType": "string",
              "name": "updateDateTime",
              "type": "string"
            }
          ],
          "indexed": false,
          "internalType": "struct Types.Account",
          "name": "account",
          "type": "tuple"
        }
      ],
      "name": "AccountUpdate",
      "type": "event"
    },
    {
      "anonymous": false,
      "inputs": [
        {
          "indexed": false,
          "internalType": "address",
          "name": "customer_id",
          "type": "address"
        },
        {
          "indexed": false,
          "internalType": "address",
          "name": "bank_id",
          "type": "address"
        },
        {
          "components": [
            {
              "internalType": "uint256",
              "name": "_Id",
              "type": "uint256"
            },
            {
              "internalType": "string",
              "name": "accountType",
              "type": "string"
            },
            {
              "internalType": "string",
              "name": "accountCurrency",
              "type": "string"
            },
            {
              "internalType": "string",
              "name": "accountTitle",
              "type": "string"
            },
            {
              "internalType": "string",
              "name": "availableBalance",
              "type": "string"
            },
            {
              "internalType": "string",
              "name": "MailingAddress",
              "type": "string"
            },
            {
              "internalType": "string",
              "name": "City",
              "type": "string"
            },
            {
              "internalType": "string",
              "name": "PostalCode",
              "type": "string"
            },
            {
              "internalType": "string",
              "name": "AddressType",
              "type": "string"
            },
            {
              "internalType": "string",
              "name": "NTN",
              "type": "string"
            },
            {
              "internalType": "address",
              "name": "bank_id",
              "type": "address"
            },
            {
              "internalType": "address",
              "name": "customer_id",
              "type": "address"
            },
            {
              "internalType": "string",
              "name": "addeDateTime",
              "type": "string"
            },
            {
              "internalType": "string",
              "name": "updateDateTime",
              "type": "string"
            }
          ],
          "indexed": false,
          "internalType": "struct Types.Account",
          "name": "account",
          "type": "tuple"
        }
      ],
      "name": "AddAccount",
      "type": "event"
    },
    {
      "constant": false,
      "inputs": [
        {
          "internalType": "address",
          "name": "customer_id",
          "type": "address"
        },
        {
          "internalType": "address",
          "name": "bank_id",
          "type": "address"
        },
        {
          "components": [
            {
              "internalType": "uint256",
              "name": "_Id",
              "type": "uint256"
            },
            {
              "internalType": "string",
              "name": "accountType",
              "type": "string"
            },
            {
              "internalType": "string",
              "name": "accountCurrency",
              "type": "string"
            },
            {
              "internalType": "string",
              "name": "accountTitle",
              "type": "string"
            },
            {
              "internalType": "string",
              "name": "availableBalance",
              "type": "string"
            },
            {
              "internalType": "string",
              "name": "MailingAddress",
              "type": "string"
            },
            {
              "internalType": "string",
              "name": "City",
              "type": "string"
            },
            {
              "internalType": "string",
              "name": "PostalCode",
              "type": "string"
            },
            {
              "internalType": "string",
              "name": "AddressType",
              "type": "string"
            },
            {
              "internalType": "string",
              "name": "NTN",
              "type": "string"
            },
            {
              "internalType": "address",
              "name": "bank_id",
              "type": "address"
            },
            {
              "internalType": "address",
              "name": "customer_id",
              "type": "address"
            },
            {
              "internalType": "string",
              "name": "addeDateTime",
              "type": "string"
            },
            {
              "internalType": "string",
              "name": "updateDateTime",
              "type": "string"
            }
          ],
          "internalType": "struct Types.Account",
          "name": "account",
          "type": "tuple"
        }
      ],
      "name": "AddAccounts",
      "outputs": [],
      "payable": false,
      "stateMutability": "nonpayable",
      "type": "function"
    },
    {
      "constant": false,
      "inputs": [
        {
          "internalType": "address",
          "name": "customer_id",
          "type": "address"
        },
        {
          "internalType": "address",
          "name": "bank_id",
          "type": "address"
        },
        {
          "components": [
            {
              "internalType": "uint256",
              "name": "_Id",
              "type": "uint256"
            },
            {
              "internalType": "string",
              "name": "accountType",
              "type": "string"
            },
            {
              "internalType": "string",
              "name": "accountCurrency",
              "type": "string"
            },
            {
              "internalType": "string",
              "name": "accountTitle",
              "type": "string"
            },
            {
              "internalType": "string",
              "name": "availableBalance",
              "type": "string"
            },
            {
              "internalType": "string",
              "name": "MailingAddress",
              "type": "string"
            },
            {
              "internalType": "string",
              "name": "City",
              "type": "string"
            },
            {
              "internalType": "string",
              "name": "PostalCode",
              "type": "string"
            },
            {
              "internalType": "string",
              "name": "AddressType",
              "type": "string"
            },
            {
              "internalType": "string",
              "name": "NTN",
              "type": "string"
            },
            {
              "internalType": "address",
              "name": "bank_id",
              "type": "address"
            },
            {
              "internalType": "address",
              "name": "customer_id",
              "type": "address"
            },
            {
              "internalType": "string",
              "name": "addeDateTime",
              "type": "string"
            },
            {
              "internalType": "string",
              "name": "updateDateTime",
              "type": "string"
            }
          ],
          "internalType": "struct Types.Account",
          "name": "account",
          "type": "tuple"
        }
      ],
      "name": "UpdateAccounts",
      "outputs": [],
      "payable": false,
      "stateMutability": "nonpayable",
      "type": "function"
    }
  ],
  "bytecode": "0x608060405234801561001057600080fd5b506107b7806100206000396000f3fe608060405234801561001057600080fd5b50600436106100365760003560e01c806362ee53ba1461003b578063805e0b6c14610057575b600080fd5b610055600480360361005091908101906103c3565b610073565b005b610071600480360361006c91908101906103c3565b6100b3565b005b7fbf81d3c795575723bdc1659d18a1306eff60532ef97a04eb09225a6fad08c3798383836040516100a693929190610604565b60405180910390a1505050565b7ff9dfa30a408be3e5c7f1b2f9f1b2a6805ac9c67f3f6c6c81c95aa5aa18d46b458383836040516100e693929190610604565b60405180910390a1505050565b60008135905061010281610746565b92915050565b600082601f83011261011957600080fd5b813561012c6101278261066f565b610642565b9150808252602083016020830185838301111561014857600080fd5b6101538382846106f3565b50505092915050565b60006101c0828403121561016f57600080fd5b61017a6101c0610642565b9050600061018a848285016103ae565b600083015250602082013567ffffffffffffffff8111156101aa57600080fd5b6101b684828501610108565b602083015250604082013567ffffffffffffffff8111156101d657600080fd5b6101e284828501610108565b604083015250606082013567ffffffffffffffff81111561020257600080fd5b61020e84828501610108565b606083015250608082013567ffffffffffffffff81111561022e57600080fd5b61023a84828501610108565b60808301525060a082013567ffffffffffffffff81111561025a57600080fd5b61026684828501610108565b60a08301525060c082013567ffffffffffffffff81111561028657600080fd5b61029284828501610108565b60c08301525060e082013567ffffffffffffffff8111156102b257600080fd5b6102be84828501610108565b60e08301525061010082013567ffffffffffffffff8111156102df57600080fd5b6102eb84828501610108565b6101008301525061012082013567ffffffffffffffff81111561030d57600080fd5b61031984828501610108565b6101208301525061014061032f848285016100f3565b61014083015250610160610345848285016100f3565b6101608301525061018082013567ffffffffffffffff81111561036757600080fd5b61037384828501610108565b610180830152506101a082013567ffffffffffffffff81111561039557600080fd5b6103a184828501610108565b6101a08301525092915050565b6000813590506103bd8161075d565b92915050565b6000806000606084860312156103d857600080fd5b60006103e6868287016100f3565b93505060206103f7868287016100f3565b925050604084013567ffffffffffffffff81111561041457600080fd5b6104208682870161015c565b9150509250925092565b610433816106b7565b82525050565b610442816106b7565b82525050565b60006104538261069b565b61045d81856106a6565b935061046d818560208601610702565b61047681610735565b840191505092915050565b60006101c08301600083015161049a60008601826105f5565b50602083015184820360208601526104b28282610448565b915050604083015184820360408601526104cc8282610448565b915050606083015184820360608601526104e68282610448565b915050608083015184820360808601526105008282610448565b91505060a083015184820360a086015261051a8282610448565b91505060c083015184820360c08601526105348282610448565b91505060e083015184820360e086015261054e8282610448565b91505061010083015184820361010086015261056a8282610448565b9150506101208301518482036101208601526105868282610448565b91505061014083015161059d61014086018261042a565b506101608301516105b261016086018261042a565b506101808301518482036101808601526105cc8282610448565b9150506101a08301518482036101a08601526105e88282610448565b9150508091505092915050565b6105fe816106e9565b82525050565b60006060820190506106196000830186610439565b6106266020830185610439565b81810360408301526106388184610481565b9050949350505050565b6000604051905081810181811067ffffffffffffffff8211171561066557600080fd5b8060405250919050565b600067ffffffffffffffff82111561068657600080fd5b601f19601f8301169050602081019050919050565b600081519050919050565b600082825260208201905092915050565b60006106c2826106c9565b9050919050565b600073ffffffffffffffffffffffffffffffffffffffff82169050919050565b6000819050919050565b82818337600083830152505050565b60005b83811015610720578082015181840152602081019050610705565b8381111561072f576000848401525b50505050565b6000601f19601f8301169050919050565b61074f816106b7565b811461075a57600080fd5b50565b610766816106e9565b811461077157600080fd5b5056fea365627a7a72315820f567b590b3fcc5652ebb4669143ed1cd5c53289b81b9049a60d078520602878b6c6578706572696d656e74616cf564736f6c63430005100040",
  "source": "// SPDX-License-Identifier: GPL-3.0\r\npragma experimental ABIEncoderV2;\r\npragma solidity >=0.5.0 <=0.9.0;\r\n\r\nimport \"./Types.sol\";\r\nimport \"./Helper.sol\";\r\n\r\n\r\ncontract Account{\r\n\r\n    address[] internal accounts;\r\n    mapping(address=>Types.Account)  accountmapping;\r\n\r\n    event AddAccount( address customer_id,address bank_id,Types.Account account);\r\n        \r\n    event AccountUpdate( address customer_id,address bank_id,Types.Account account);\r\n    \r\nfunction getallAccount(uint256 pageNumber)\r\n        internal\r\n        view\r\n        returns (uint256 totalPages, Types.Account[] memory)\r\n    {\r\n        require(pageNumber > 0, \"PN should be > 0\");\r\n        (\r\n            uint256 pages,\r\n            uint256 pageLength_,\r\n            uint256 startIndex_,\r\n            uint256 endIndex_\r\n        ) = Helper.getIndexes(pageNumber, accounts);\r\n\r\n        Types.Account[] memory banksList_ = new Types.Account[](pageLength_);\r\n        for (uint256 i = startIndex_; i < endIndex_; i++)\r\n            banksList_[i] = accountmapping[accounts[i]];\r\n        return (pages, banksList_);\r\n    }\r\n         modifier isValidAccount(address customerid_,uint256 account_id) {\r\n        require( customerid_!= address(0), \"Id is Empty\");\r\n        require(accountmapping[customerid_]._Id != account_id, \"Invalid Account Id\");\r\n        \r\n        _;\r\n    }\r\n  \r\n   \r\n    function getCustomerAccountInfomration(address customer_id) internal view returns(Types.Account memory)\r\n    {\r\n        require(customer_id!=address(0),\"Incorrect Account_id\");\r\n        return accountmapping[customer_id];\r\n    }\r\n    function AddAccounts(address customer_id,address bank_id,Types.Account memory account) public {\r\n        emit AddAccount(customer_id,bank_id,account);\r\n           \r\n    }\r\n    function UpdateAccounts(address customer_id,address bank_id,Types.Account memory account) public {\r\n        emit AccountUpdate(customer_id,bank_id,account);\r\n           \r\n    }\r\n        \r\n      \r\n        \r\n}",
  "sourcePath": "C:/Users/shaharyar.ayaz/Desktop/SeamLessCustomerOnboarding/SeamLess/contracts/Account.sol",
  "compiler": {
    "name": "solc",
    "version": "0.5.16+commit.9c3226ce.Emscripten.clang"
  },
  "schemaVersion": "3.2.3",
  "updatedAt": "2023-02-20T02:27:26.317Z",
  "networkType": "ethereum",
  "devdoc": {
    "methods": {}
  },
  "userdoc": {
    "methods": {}
  }
}