{
  "contractName": "Vote",
  "abi": [
    {
      "inputs": [],
      "payable": false,
      "stateMutability": "nonpayable",
      "type": "constructor"
    },
    {
      "constant": true,
      "inputs": [],
      "name": "candiate1Vote",
      "outputs": [
        {
          "internalType": "uint256",
          "name": "",
          "type": "uint256"
        }
      ],
      "payable": false,
      "stateMutability": "view",
      "type": "function"
    },
    {
      "constant": true,
      "inputs": [],
      "name": "candiate2Vote",
      "outputs": [
        {
          "internalType": "uint256",
          "name": "",
          "type": "uint256"
        }
      ],
      "payable": false,
      "stateMutability": "view",
      "type": "function"
    },
    {
      "constant": false,
      "inputs": [
        {
          "internalType": "uint256",
          "name": "candiate",
          "type": "uint256"
        }
      ],
      "name": "castVote",
      "outputs": [],
      "payable": false,
      "stateMutability": "nonpayable",
      "type": "function"
    }
  ],
  "bytecode": "0x608060405234801561001057600080fd5b506000808190555060006001819055506102ad8061002f6000396000f3fe608060405234801561001057600080fd5b50600436106100415760003560e01c80633eb76b9c146100465780635a6665e214610074578063c4379ed814610092575b600080fd5b6100726004803603602081101561005c57600080fd5b81019080803590602001909291905050506100b0565b005b61007c61026c565b6040518082815260200191505060405180910390f35b61009a610272565b6040518082815260200191505060405180910390f35b600260003373ffffffffffffffffffffffffffffffffffffffff1673ffffffffffffffffffffffffffffffffffffffff16815260200190815260200160002060009054906101000a900460ff16158015610115575060018114806101145750600281145b5b610187576040517f08c379a000000000000000000000000000000000000000000000000000000000815260040180806020018281038252601c8152602001807f566f74652068617320416c7265616479204265656e204361737465640000000081525060200191505060405180910390fd5b60018114156101fe5760008081548092919060010191905055506001600260003373ffffffffffffffffffffffffffffffffffffffff1673ffffffffffffffffffffffffffffffffffffffff16815260200190815260200160002060006101000a81548160ff021916908315150217905550610269565b6001600081548092919060010191905055506001600260003373ffffffffffffffffffffffffffffffffffffffff1673ffffffffffffffffffffffffffffffffffffffff16815260200190815260200160002060006101000a81548160ff0219169083151502179055505b50565b60005481565b6001548156fea265627a7a7231582003d386dd798a85661b550187243c780217cbb6fa5c20afada3e815096c8083a464736f6c63430005100032",
  "source": "pragma solidity >=0.4.22 <0.9.0;\r\n\r\ncontract Vote{\r\n\r\n    uint public candiate1Vote;\r\n    uint public candiate2Vote;\r\n    mapping(address=>bool) voteCasted;\r\n    constructor() public {\r\n        candiate1Vote=0;\r\n        candiate2Vote=0;\r\n    }\r\n\r\n    function castVote(uint candiate) public {\r\n        require(!voteCasted[msg.sender] &&( candiate ==1 || candiate==2),\"Vote has Already Been Casted\");\r\n        if(candiate==1)\r\n        {\r\n            candiate1Vote++;\r\n            voteCasted[msg.sender]=true;\r\n        }else{\r\n            candiate2Vote++;\r\n            voteCasted[msg.sender]=true;\r\n        }\r\n\r\n    }\r\n}",
  "sourcePath": "C:/Users/shaharyar.ayaz/Desktop/SeamLessVotingSystem/contracts/Vote.sol",
  "compiler": {
    "name": "solc",
    "version": "0.5.16+commit.9c3226ce.Emscripten.clang"
  },
  "schemaVersion": "3.2.3",
  "updatedAt": "2023-02-18T13:31:37.401Z",
  "networkType": "ethereum",
  "devdoc": {
    "methods": {}
  },
  "userdoc": {
    "methods": {}
  }
}